:100000000C9462000C948A000C948A000C948A0070
:100010000C948A000C948A000C948A000C948A0038
:100020000C948A000C948A000C948A000C944F0360
:100030000C948A000C948A000C948A000C948A0018
:100040000C9405030C948A000C94D3020C94AD021A
:100050000C948A000C948A000C948A000C948A00F8
:100060000C948A000C948A000000000024002700F1
:100070002A0000000000250028002B0000000008D6
:10008000000201000003040700000000000000005F
:1000900000000000230026002900040404040404D6
:1000A0000404020202020202030303030303010227
:1000B00004081020408001020408102001020408F6
:1000C0001020500411241FBECFEFD8E0DEBFCDBFFB
:1000D00011E0A0E0B1E0EAECF0E102C005900D9281
:1000E000AA31B107D9F721E0AAE1B1E001C01D9220
:1000F000A93EB207E1F710E0C2E6D0E004C02197C4
:10010000FE010E945D08C136D107C9F70E94AD0407
:100110000C9463080C9400008F929F92AF92BF9250
:10012000FF920F931F93CF93DF93F090E6012BE0A4
:100130002F1508F44CC02091E80108E512E0021BDD
:10014000110927FD1395000F111F000F111F20919A
:10015000E701C8E8D0E0C21BD10927FDD395CC0F39
:10016000DD1FCC0FDD1F4E010D2E000CAA08BB08B1
:100170009801012E000C440B550B281939094A0926
:100180005B09DC010E94E20624EB30E040E050E035
:100190000E94B806820E931EA41EB51E8C169D06E4
:1001A0002CF0E801801691060CF4E4012297CC0FA4
:1001B000DD1F2FB7F8948F2D90E0FC01EE0FFF1F8D
:1001C000E80FF91FEF53FE4FD283C1832FBFDF919A
:1001D000CF911F910F91FF90BF90AF909F908F9004
:1001E0000895AF92BF92CF92DF92EF92FF920F935A
:1001F0001F93CF93DF936C017B018B01040F151FBD
:10020000EB015E01AE18BF08C017D10759F0699124
:10021000D601ED91FC910190F081E02DC601099588
:10022000892B79F7C501DF91CF911F910F91FF9035
:10023000EF90DF90CF90BF90AF900895FC01538D69
:10024000448D252F30E0842F90E0821B930B5417B0
:1002500010F0CF96089501970895FC01918D828D3D
:10026000981761F0A28DAE0FBF2FB11D5D968C91D6
:10027000928D9F5F9F73928F90E008958FEF9FEF15
:100280000895FC01918D828D981731F0828DE80FD1
:10029000F11D858D90E008958FEF9FEF0895FC018B
:1002A000918D228D892F90E0805C9F4F821B910958
:1002B0008F739927089584E291E00E944F0121E015
:1002C000892B09F420E0822F089580E090E0892BAB
:1002D00029F00E945B0181110C9400000895FC013B
:1002E000A48DA80FB92FB11DA35ABF4F2C91848D97
:1002F00090E001968F739927848FA689B7892C93F4
:10030000A089B1898C91837080648C93938D848D46
:10031000981306C00288F389E02D80818F7D808349
:100320000895EF92FF920F931F93CF93DF93EC0109
:1003300081E0888F9B8D8C8D98131AC0E889F9898C
:10034000808185FF15C09FB7F894EE89FF8960838F
:10035000E889F98980818370806480839FBF81E010
:1003600090E0DF91CF911F910F91FF90EF90089552
:10037000F62E0B8D10E00F5F1F4F0F731127E02E2D
:100380008C8D8E110CC00FB607FCFACFE889F98965
:10039000808185FFF5CFCE010E946F01F1CFEB8DFB
:1003A000EC0FFD2FF11DE35AFF4FF0829FB7F89439
:1003B0000B8FEA89FB8980818062CFCFCF93DF9357
:1003C000EC01888D8823B9F0AA89BB89E889F9896D
:1003D0008C9185FD03C0808186FD0DC00FB607FCA2
:1003E000F7CF8C9185FFF2CF808185FFEDCFCE01D5
:1003F0000E946F01E9CFDF91CF91089590E0FC0159
:10040000E458FF4F2491FC01E255FF4F3491FC0169
:10041000E656FF4FE491EE23C9F0222339F0233052
:1004200001F1A8F4213019F1223029F1F0E0EE0FAA
:10043000FF1FEE58FF4FA591B4918FB7F894EC9140
:10044000611126C030953E233C938FBF089527301D
:10045000A9F02830C9F0243049F7809180008F7DC1
:1004600003C0809180008F7780938000DFCF84B5B8
:100470008F7784BDDBCF84B58F7DFBCF8091B000BB
:100480008F778093B000D2CF8091B0008F7DF9CF6D
:100490003E2BDACFCF93DF9390E0FC01E255FF4F84
:1004A000249186569F4FFC0184918823D1F090E0DF
:1004B000880F991FFC01E859FF4FA591B491FC01E9
:1004C000EE58FF4FC591D49161110EC09FB7F894BB
:1004D0008C91E22FE0958E238C932881E223E88390
:1004E0009FBFDF91CF9108958FB7F894EC91E22BE5
:1004F000EC938FBFF6CF3FB7F89480912001909195
:100500002101A0912201B091230126B5A89B05C02D
:100510002F3F19F00196A11DB11D3FBFBA2FA92F82
:10052000982F8827BC01CD01620F711D811D911D7F
:1005300042E0660F771F881F991F4A95D1F70895EB
:10054000FC0101900020E9F73197AF01481B590BDE
:10055000BC0184E291E00C94F1001F920F920FB65F
:100560000F9211242F933F934F935F936F937F9339
:100570008F939F93AF93BF93EF93FF9384E291E0A8
:100580000E946F01FF91EF91BF91AF919F918F9169
:100590007F916F915F914F913F912F910F900FBE7F
:1005A0000F901F9018951F920F920FB60F92112463
:1005B0002F938F939F93EF93FF93E0913401F091EA
:1005C00035018081E0913A01F0913B0182FD1BC031
:1005D000908180913D018F5F8F7320913E01821742
:1005E00041F0E0913D01F0E0EC5DFE4F958F80938E
:1005F0003D01FF91EF919F918F912F910F900FBE31
:100600000F901F9018958081F4CF1F920F920FB614
:100610000F9211242F933F938F939F93AF93BF9388
:1006200080911C0190911D01A0911E01B0911F01AC
:1006300030911B0123E0230F2D3758F50196A11DA2
:10064000B11D20931B0180931C0190931D01A09369
:100650001E01B0931F018091200190912101A09172
:100660002201B09123010196A11DB11D80932001AB
:1006700090932101A0932201B0932301BF91AF91E8
:100680009F918F913F912F910F900FBE0F901F90D0
:10069000189526E8230F0296A11DB11DD2CF1F92F7
:1006A0000F920FB60F9211242F933F934F935F93A6
:1006B0006F937F938F939F93AF93BF93CF93DF936A
:1006C000EF93FF9380911A01C091E501D0E087FF7D
:1006D00024C0109285001092840080911A018F5FCF
:1006E00080931A0180911A01082E000C990B8C1727
:1006F0009D0724F480911A018C30C4F1809184000C
:1007000090918500049680349C4908F47AC08091C9
:10071000840090918500049676C080911A01082E7D
:10072000000C990B8C179D07C4F6E0911A018E2FCF
:10073000EE0F990BFC01EE0FFF1FE80FF91FEF53AF
:10074000FE4F808186FFC9CFE0911A018E2FEE0FF8
:10075000990BFC01EE0FFF1FE80FF91FEF53FE4F3F
:10076000808160E08F730E94FE01B7CF20918400EA
:1007700030918500E0911A018E2FEE0F990BFC014C
:10078000EE0FFF1FE80FF91FEF53FE4F818192819B
:10079000820F931F9093890080938800E0911A0143
:1007A0008E2FEE0F990BFC01EE0FFF1FE80FF91FC4
:1007B000EF53FE4F808186FF11C0E0911A018E2F0A
:1007C000EE0F990BFC01EE0FFF1FE80FF91FEF531F
:1007D000FE4F808161E08F730E94FE01FF91EF91D7
:1007E000DF91CF91BF91AF919F918F917F916F9149
:1007F0005F914F913F912F910F900FBE0F901F90DF
:10080000189580E49CE990938900809388008FEF8D
:1008100080931A01E3CFCF92DF92EF92FF920F9372
:100820001F93E82FF92F05C0015011092109310943
:1008300061F1908196239417B9F305C00150110915
:100840002109310911F1908196239413F7CFC12C1E
:10085000D12CE12CF12C0AC08FEFC81AD80AE80A73
:10086000F80A0C151D052E053F0579F080818623B9
:10087000841791F36C2D7D2D8E2D9F2D1F910F913F
:10088000FF90EF90DF90CF90089560E070E080E0FF
:1008900090E01F910F91FF90EF90DF90CF9008951F
:1008A000109227011092260188EE93E0A0E0B0E0BC
:1008B0008093280190932901A0932A01B0932B01E2
:1008C00084E091E0909325018093240185EC90E0F1
:1008D000909331018093300184EC90E09093330148
:1008E0008093320180EC90E0909335018093340145
:1008F00081EC90E0909337018093360182EC90E098
:10090000909339018093380186EC90E090933B01FD
:1009100080933A0110923D0110923E0110923F01E6
:10092000109240018091E5018C3098F491E0980F8D
:100930009093E5018093E60190E0FC01EE0FFF1F2C
:10094000E80FF91FEF53FE4F88EB9BE09283818302
:1009500008958FEF8093E6010895CF93DF93CDB78D
:10096000DEB7A1970FB6F894DEBF0FBECDBF789467
:1009700084B5826084BD84B5816084BD85B58260A4
:1009800085BD85B5816085BD80916E008160809355
:100990006E001092810080918100826080938100BE
:1009A00080918100816080938100809180008160CE
:1009B000809380008091B10084608093B100809129
:1009C000B00081608093B00080917A008460809351
:1009D0007A0080917A00826080937A0080917A0018
:1009E000816080937A0080917A00806880937A0099
:1009F0001092C100E0913401F091350182E08083D2
:100A0000E0913001F09131011082E0913201F091DA
:100A100033018FEC808310923C01E0913801F0911A
:100A2000390186E08083E0913601F09137018081C1
:100A300080618083E0913601F09137018081886088
:100A40008083E0913601F091370180818068808356
:100A5000E0913601F091370180818F7D808361E0E4
:100A600087E00E944A0260E086E00E944A0261E05C
:100A70008EE00E944A0261E08FE00E944A0261E03B
:100A800080E10E944A0261E081E10E944A02809175
:100A9000E6018C3008F051C061E089E00E944A0212
:100AA0008091E601282F30E0F901EE0FFF1FE20FE1
:100AB000F31FEF53FE4F9081907C996090831092CA
:100AC000E7011092E8012CE0622F0E945108829FFA
:100AD000B001112430E020E0AB01420F531FFA01B6
:100AE000EE0FFF1FE40FF51FEF53FE4F908196FDB1
:100AF00016C02F5F3F4F2C30310571F781110FC0A9
:100B00001092800082E08093810010928500109204
:100B10008400B19A80916F00826080936F00E091B1
:100B2000E6018E2F90E0FC01EE0FFF1FE80FF91F8A
:100B3000EF53FE4F80818064808360E08EE00E94EE
:100B4000FE0160E08FE00E94FE0160E080E10E9413
:100B5000FE0160E081E10E94FE010E947B024B01E8
:100B60005C0148EEC42E43E0D42EE12CF12C0E940F
:100B70007B02681979098A099B09683E73408105DF
:100B80009105A8F321E0C21AD108E108F10888EE26
:100B9000880E83E0981EA11CB11CC114D104E1048D
:100BA000F10429F720EA222E20E0322E3AE0432EEB
:100BB000512C612C712C61E087E00E94FE018BE9D1
:100BC0009FE00197F1F760E087E00E94FE01E4EB0F
:100BD000F0E06491F1018491E82FF0E0EE0FFF1F47
:100BE000E057FF4F8591949100E412E42FE030E04C
:100BF000462F0E940B04611571058105910529F0AE
:100C00006F5F7F4F8F4F9F4F9F709B0177FF02C099
:100C10002F5F3F4FB90175956795072E000C880B24
:100C2000990B0E94C5072DEC3CEC48EE51E40E9464
:100C30001B070E948D076B0182E191E00E94A002D8
:100C400086E191E00E94A00246010D2C000CAA084A
:100C5000BB08B7FE53C06DE284E291E00E949101AF
:100C600022273327A901281939094A095B0919A242
:100C70008E010F5D1F4FCA01B901A30192010E94AD
:100C8000EA06605DF80162938F0121153105410587
:100C9000510589F70115110519F0C8010E94A0023C
:100CA00086E191E00E94A002C601019761E04997A8
:100CB00028F0C6014A974997B8F560E08EE00E9497
:100CC000FE0161E08FE00E94FE0161E080E10E9490
:100CD000FE0161E081E10E94FE018AE590E00E9450
:100CE0008C0080E090E0892B09F465CF0E945B01C5
:100CF000882309F460CF0E9400005DCFA501940114
:100D000019A28E010F5D1F4FCA01B901A301920103
:100D10000E94EA06605DF80162938F01211531059A
:100D20004105510589F7B6CFC601C397499730F4FD
:100D300060E08EE00E94FE0160E0C4CFFCE4CF1AC8
:100D4000D10829E1C216D10460F660E08EE00E946D
:100D5000FE0160E08FE00E94FE0160E080E10E9401
:100D6000FE0160E081E10E94FE0184EB90E0B7CFDC
:100D7000052E97FB1EF400940E94CF0657FD07D066
:100D80000E94EA0607FC03D04EF40C94CF0650955F
:100D90004095309521953F4F4F4F5F4F0895909567
:100DA0008095709561957F4F8F4F9F4F08950E945A
:100DB0000C07A59F900DB49F900DA49F800D911DD1
:100DC00011240895B7FF0C94D7060E94D706821B02
:100DD000930B0895A1E21A2EAA1BBB1BFD010DC0A7
:100DE000AA1FBB1FEE1FFF1FA217B307E407F507DB
:100DF00020F0A21BB30BE40BF50B661F771F881FB7
:100E0000991F1A9469F760957095809590959B014C
:100E1000AC01BD01CF010895A29FB001B39FC001F5
:100E2000A39F700D811D1124911DB29F700D811D16
:100E30001124911D08950E942F070C9417080E94F9
:100E4000100858F00E94090840F029F45F3F29F08B
:100E50000C94000851110C944B080C9406080E9445
:100E6000280868F39923B1F3552391F3951B550B8B
:100E7000BB27AA2762177307840738F09F5F5F4F6D
:100E8000220F331F441FAA1FA9F335D00E2E3AF0AC
:100E9000E0E832D091505040E695001CCAF72BD0C4
:100EA000FE2F29D0660F771F881FBB1F2617370715
:100EB0004807AB07B0E809F0BB0B802DBF01FF2747
:100EC00093585F4F3AF09E3F510578F00C9400081C
:100ED0000C944B085F3FE4F3983ED4F386957795E6
:100EE0006795B795F7959F5FC9F7880F911D969500
:100EF000879597F90895E1E0660F771F881FBB1F5C
:100F0000621773078407BA0720F0621B730B840B08
:100F1000BA0BEE1F88F7E09508950E949407689435
:100F2000B1110C944B0808950E94300888F09F5727
:100F300098F0B92F9927B751B0F0E1F0660F771FFD
:100F4000881F991F1AF0BA95C9F714C0B13091F0F3
:100F50000E944A08B1E008950C944A08672F782F40
:100F60008827B85F39F0B93FCCF3869577956795B8
:100F7000B395D9F73EF490958095709561957F4F24
:100F80008F4F9F4F0895E89409C097FB3EF49095CA
:100F90008095709561957F4F8F4F9F4F9923A9F052
:100FA000F92F96E9BB279395F695879577956795E1
:100FB000B795F111F8CFFAF4BB0F11F460FF1BC025
:100FC0006F5F7F4F8F4F9F4F16C0882311F096E9B8
:100FD00011C0772321F09EE8872F762F05C0662366
:100FE00071F096E8862F70E060E02AF09A95660F1F
:100FF000771F881FDAF7880F9695879597F90895D8
:1010000097F99F6780E870E060E008959FEF80ECBB
:10101000089500240A94161617061806090608955E
:1010200000240A9412161306140605060895092EC4
:101030000394000C11F4882352F0BB0F40F4BF2B33
:1010400011F460FF04C06F5F7F4F8F4F9F4F089573
:1010500057FD9058440F551F59F05F3F71F0479569
:10106000880F97FB991F61F09F3F79F0879508954E
:10107000121613061406551FF2CF4695F1DF08C06D
:10108000161617061806991FF1CF8695710561058A
:1010900008940895E894BB2766277727CB0197F932
:1010A0000895991B79E004C0991F961708F0961BC4
:1010B000881F7A95C9F780950895EE0FFF1F059058
:0A10C000F491E02D0994F894FFCF9D
:1010CA00000000009101F1001E01DE014F012D0117
:0A10DA004101636D3A000D0A0000A9
:00000001FF
